:100000000C9402010C941F010C941F010C941F010D
:100010000C941F010C941F010C941F010C941F01E0
:100020000C941F010C941F010C941F010C941F01D0
:100030000C941F010C941F010C941F010C941F01C0
:100040000C941F010C941F010C941F010C941F01B0
:100050000C941F010C941F010C941F010C941F01A0
:100060000C9456010C941F0193016C016C016C01FE
:100070006C016C016C016C0193016C016C016C01F1
:100080006C016C016C016C019D016C016C016C01D7
:100090006C016C016C016C016C016C016C016C01F8
:1000A0006C016C016C016C019D016C016C016C01B7
:1000B0006C016C016C016C016C016C016C016C01D8
:1000C0006C016C016C016C01B4016C016C016C0180
:1000D0006C016C016C016C01B8016C016C016C016C
:1000E0006C016C016C016C016C016C016C016C01A8
:1000F0006C016C016C016C01C6016C016C016C013E
:100100006C016C016C016C01840100407A10F35A9F
:1001100000A0724E18090010A5D4E80000E8764847
:10012000170000E40B54020000CA9A3B000000E1F3
:10013000F505000080969800000040420F00000086
:10014000A08601000000102700000000E803000066
:1001500000006400000000000A0000000000010030
:10016000000000002C76D888DC674F0823DFC1DF51
:10017000AE59E1B1B796E5E3E453C63AE651997654
:1001800096E8E6C28426EB898C9B62ED407C6FFC8E
:10019000EFBC9C9F40F2BAA56FA5F490055A2AF7D0
:1001A0005C936B6CF9676DC11BFCE0E40D47FEF5D9
:1001B00020E6B500D0ED902E030094357705008041
:1001C000841E080000204E0A000000C80C333333A0
:1001D000330F986E12831141EF8D2114893BE65540
:1001E00016CFFEE6DB18D1844B381BF77C1D901D23
:1001F000A4BBE424203284725E228100C9F124EC85
:10020000A1E53D2711241FBECFEFD4E0DEBFCDBF57
:1002100011E0A0E0B1E0ECE0FDE002C005900D923D
:10022000A430B107D9F721E0A4E0B1E001C01D92EC
:10023000A037B207E1F70E9466020C9484060C9482
:10024000000083EE8093050141E065E071E080E805
:100250000E94E50143E068E071E080E80E94F60159
:10026000609108017091090176276727762780E061
:1002700090E00E94000322E538EB4FE253E40E9435
:100280008E0320E030E040E857E30E948E0326E62C
:1002900036E64BE352E40E949302609300017093B0
:1002A0000101809302019093030108951F920F9220
:1002B0000FB60F9211242F933F938F939F93AF9379
:1002C000BF93EF93FF93E091B9008E2F90E0FC0174
:1002D0003897E135F105A0F08091B90080931B01BA
:1002E00084E08093BC00FF91EF91BF91AF919F910B
:1002F0008F913F912F910F900FBE0F901F901895E7
:10030000EC5CFF4F0C948D0280910401E0911C0184
:10031000F0911D01E80FF11D8091BB00808384E9FD
:100320008093BC00E0CF80911E018093BB001092AF
:10033000040185E88093BC00D6CF809104019091A0
:100340001F01891760F7E0911C01F0911D0191E0F8
:10035000980F90930401E80FF11D80818093BB00FA
:1003600085E88093BC00BFCF85EA8093BC00BBCFFB
:100370002091040180911F0130E090E0019728173F
:100380003907DCF485EC8093BC00ADCFE0911C0113
:10039000F0911D018091040121E0280F20930401B8
:1003A000E80FF11D8091BB00808380911F0130E038
:1003B00090E00197281739072CF385E88093BC005B
:1003C00092CF8091BC00817008959091BC0090FD07
:1003D000FCCF8E7F80931E0170931D0160931C01E2
:1003E00040931F0185EA8093BC0008959091BC0062
:1003F00090FDFCCF816080931E0170931D0160937E
:100400001C0140931F0185EA8093BC0008958FEF83
:100410008093BB001092B9008CE08093B8000895DF
:100420009091C00095FFFCCF8093C6008091C000E2
:1004300085FFFCCF0895FC012081222371F03196C5
:100440009091C00095FFFCCF2093C6009091C00012
:1004500095FFFCCF21912111F3CF08959C01C90193
:10046000F9014491442399F02F5F3F4FFC0184919F
:100470009091C00095FFFCCF8093C6009091C00082
:1004800095FFFCCFC901F90144914111EDCF0895C9
:10049000E1ECF0E0808188698083E2ECF0E080812B
:1004A000866080831092C50087E68093C40008951B
:1004B00080E89EE302C0019739F02091C00027FF39
:1004C000FACF8091C600089580E00895CF93DF931E
:1004D00000D000D000D0CDB7DEB778940E9448029B
:1004E0000E9407028FE39CE90197F1F700C000002A
:1004F0000E9421016091000170910101809102012F
:10050000909103018E010F5F1F4F21E044E00E9494
:10051000FB03C8010E941B02E5CFEE0FFF1F0590F1
:10052000F491E02D09945058BB27AA270E94AB02F2
:100530000C9454030E94460338F00E944D0320F0AF
:1005400039F49F3F19F426F40C9443030EF4E0951C
:10055000E7FB0C943D03E92F0E94650358F3BA179B
:10056000620773078407950720F079F4A6F50C94C9
:1005700087030EF4E0950B2EBA2FA02D0B01B901C5
:1005800090010C01CA01A0011124FF27591B99F009
:10059000593F50F4503E68F11A16F040A22F232F15
:1005A000342F4427585FF3CF469537952795A79565
:1005B000F0405395C9F77EF41F16BA0B620B730B0C
:1005C000840BBAF09150A1F0FF0FBB1F661F771F7D
:1005D000881FC2F70EC0BA0F621F731F841F48F432
:1005E000879577956795B795F7959E3F08F0B0CFBB
:1005F0009395880F08F09927EE0F979587950895A2
:10060000E89409C097FB3EF49095809570956195AC
:100610007F4F8F4F9F4F9923A9F0F92F96E9BB2762
:100620009395F695879577956795B795F111F8CFDE
:10063000FAF4BB0F11F460FF1BC06F5F7F4F8F4F49
:100640009F4F16C0882311F096E911C0772321F03F
:100650009EE8872F762F05C0662371F096E8862FD7
:1006600070E060E02AF09A95660F771F881FDAF72E
:10067000880F9695879597F9089597F99F6780E871
:1006800070E060E008959FEF80EC089500240A94E4
:100690001616170618060906089500240A9412165D
:1006A0001306140605060895092E0394000C11F490
:1006B000882352F0BB0F40F4BF2B11F460FF04C03D
:1006C0006F5F7F4F8F4F9F4F089557FD9058440F96
:1006D000551F59F05F3F71F04795880F97FB991FA1
:1006E00061F09F3F79F0879508951216130614065E
:1006F000551FF2CF4695F1DF08C0161617061806EB
:10070000991FF1CF86957105610508940895E894C5
:10071000BB2766277727CB0197F908950E94A1038D
:100720000C9454030E94460338F00E944D0320F0BD
:10073000952311F00C943D030C94430311240C9465
:1007400088030E94650370F3959FC1F3950F50E0F5
:10075000551F629FF001729FBB27F00DB11D639F73
:10076000AA27F00DB11DAA1F649F6627B00DA11D19
:10077000661F829F2227B00DA11D621F739FB00DBF
:10078000A11D621F839FA00D611D221F749F33272F
:10079000A00D611D231F849F600D211D822F762FC8
:1007A0006A2F11249F5750409AF0F1F088234AF0A5
:1007B000EE0FFF1FBB1F661F771F881F9150504011
:1007C000A9F79E3F510580F00C943D030C948803DB
:1007D0005F3FE4F3983ED4F3869577956795B79598
:1007E000F795E7959F5FC1F7FE2B880F911D9695B2
:1007F000879597F90895EF920F931F93CF93DF9307
:10080000E80147FD02C034E001C034E1042E000CD1
:10081000550B57FF03C0519541955109E32E022F07
:10082000242FAE010E941B04CE01DF91CF911F91B6
:100830000F91EF900895A9E0B0E0E1E2F4E00C94AC
:1008400053066A01122FB02E2BE3201720F0FF244D
:10085000F394F00E02C02CE3F22E0F2D27E0AE0130
:100860004F5F5F4F0E947505BC014981842F8970DD
:10087000813031F0E1FC06C0E0FE06C090E205C028
:100880009DE203C09BE201C090E05E2D507143FFEA
:100890003CC0911102C083E001C084E0811718F4CC
:1008A000212F281B01C020E051110BC0F601822F1F
:1008B00030E2882319F031938150FBCFC20ED11C56
:1008C00020E0992329F0D6019C93F60131966F011F
:1008D000C6010396E2FE0AC03EE4D6013C9341E421
:1008E00011964C93119712963C9306C03EE6F60182
:1008F000308341E641833283FC01322F40E23323CF
:1009000009F442C041933150FACF42FF44C09111E3
:1009100002C083E001C084E0811718F4212F281B56
:1009200001C020E051110BC0F601822F30E2882374
:1009300019F031938150FBCFC20ED11C20E09923D6
:1009400029F0D6019C93F60131966F01C6010396FA
:10095000E2FE0BC039E4D6013C933EE411963C9391
:10096000119736E412963C9307C039E6F6013083BE
:100970003EE6318336E63283FC01322F40E23323F8
:1009800019F041933150FBCFFC01E20FF11D1082B1
:100990008EEF9FEFA6C021E030E0911102C020E071
:1009A00030E0161617061CF4FB01319602C0E1E098
:1009B000F0E02E0F3F1FBB2021F0EB2DF0E0319631
:1009C00002C0E0E0F0E02E0F3F1FE12FF0E02E1715
:1009D0003F071CF4121B212F01C020E08E2D8871CF
:1009E00059F4F601822F30E2882319F031938150B7
:1009F000FBCFC20ED11C20E0992329F0D6019C9395
:100A0000F60131966F0151110BC0F601822F90E370
:100A1000882319F091938150FBCFC20ED11C20E0A6
:100A20000F2D060F9A81342F307144FF03C091338C
:100A300009F40150101624F4093018F008E001C040
:100A400001E0AB0177FF02C040E050E0FB01E41B96
:100A5000F50BA1E0B0E0AC0FBD1FEA0FFB1F8EE26B
:100A6000A82E4B01801A91080B2D10E011950195CD
:100A700011094F3FBFEF5B0721F4D601AC921196ED
:100A80006D01641775072CF08416950614F48181A6
:100A900001C080E3415051093196D60111967D0184
:100AA0004017510724F0D6018C936701E2CF6417F9
:100AB000750739F4963320F4953319F4311101C0D8
:100AC00081E3F6018083F701822F90E2882319F0F9
:100AD00091938150FBCFF701E20FF11D108280E06E
:100AE00090E02996ECE00C946F06283008F027E09F
:100AF0003327DA01990F311D87FD9160009661055A
:100B0000710539F432602E5F3D9330E32A95E1F7A9
:100B100008959F3F30F080387105610509F03C5F12
:100B20003C5F3D93913008F08068911DDF93CF9337
:100B30001F930F93FF92EF92192F987F9695E92FAD
:100B400096959695E90FFF27EC59FE4F9927332785
:100B5000EE24FF24A701E70105900894079428F4E8
:100B6000360FE71EF81E491F511D660F771F881F9D
:100B7000991F0694A1F70590079428F4E70EF81E34
:100B8000491F561FC11D770F881F991F661F0694A6
:100B9000A1F70590079428F4F80E491F561FC71FA8
:100BA000D11D880F991F661F771F0694A1F7059026
:100BB000079420F4490F561FC71FD81F990F661FAF
:100BC000771F881F0694A9F784911095177041F03C
:100BD000D695C79557954795F794E7941A95C1F719
:100BE000EAE0F1E068941590159135916591959141
:100BF00005907FE27395E118F10A430B560BC90B80
:100C0000D009C0F7E10CF11E431F561FC91FD01DAC
:100C10007EF4703311F48A95E6CFE894015030F0F9
:100C2000080F0AF40027021708F4202F2395022F3B
:100C30007A3328F079E37D932A95E9F710C07D9304
:100C40002A9589F606949795679537951795179481
:100C5000E118F10A430B560BC90BD00998F0239504
:100C60007E9173957A3308F070E37C932013B8F784
:100C70007E9170617D9330F0839571E37D9370E395
:100C80002A95E1F71124EF90FF900F911F91CF91DA
:100C9000DF91992787FD909508952F923F924F926B
:100CA0005F926F927F928F929F92AF92BF92CF92FC
:100CB000DF92EF92FF920F931F93CF93DF93CDB705
:100CC000DEB7CA1BDB0B0FB6F894DEBF0FBECDBF7D
:100CD00009942A88398848885F846E847D848C844E
:100CE0009B84AA84B984C884DF80EE80FD800C8157
:100CF0001B81AA81B981CE0FD11D0FB6F894DEBF3A
:0C0D00000FBECDBFED010895F894FFCFA9
:040D0C00000080BFA4
:00000001FF
