:100000000C9497000C94B6000C94B6000C94B600B7
:100010000C94B6000C94B6000C94B6000C94B60088
:100020000C9425010C94B6000C94B6000C94B60008
:100030000C94EE000C94B6000C94FD000C94430359
:100040000C94B6000C94B6000C9434010C94B600D9
:100050000C94B6000C94B8000C94B6000C94B60046
:100060000C94B6000C94B6000C94B6000C94B60038
:100070000C94B6000C94B6000C94B6000C94B60028
:100080000C94B6000C94290E0C94B6006A0E410E26
:10009000410E410E410E410E410E410E6A0E410EBF
:1000A000410E410E410E410E410E410E740E410EA5
:1000B000410E410E410E410E410E410E410E410EC8
:1000C000410E410E410E410E410E410E740E410E85
:1000D000410E410E410E410E410E410E410E410EA8
:1000E000410E410E410E410E410E410E8B0E410E4E
:1000F000410E410E410E410E410E410E8F0E410E3A
:10010000410E410E410E410E410E410E410E410E77
:10011000410E410E410E410E410E410E9D0E410E0B
:10012000410E410E410E410E410E410E5B0E112457
:100130001FBECFEFD0E1DEBFCDBF11E0A0E0B1E048
:10014000ECE3FBE200E00BBF02C007900D92AA3C7B
:10015000B107D9F723E0AAECB1E001C01D92AD3799
:10016000B207E1F70E943A110C949C150C94000020
:100170001F920F920FB60F9211242F933F934F931C
:100180005F936F937F938F939F93AF93BF9344B18C
:1001900055B184E6849F9001859F300D1124932FE3
:1001A00096959695891B80936B022FEF829FC001D5
:1001B000112464E670E00E94111263BD3698BF916D
:1001C000AF919F918F917F916F915F914F913F91EF
:1001D0002F910F900FBE0F901F9018951F920F92A6
:1001E0000FB60F9211248F9382B3805882BB8F91E8
:1001F0000F900FBE0F901F9018951F920F920FB681
:100200000F9211240BB60F922F933F934F935F934E
:100210006F937F938F939F93AF93BF93EF93FF93CE
:100220000E94EE00FF91EF91BF91AF919F918F914E
:100230007F916F915F914F913F912F910F900BBEE6
:100240000F900FBE0F901F9018951F920F920FB630
:100250000F9211248F9381E080933F028F910F9032
:100260000FBE0F901F9018951F920F920FB60F920E
:1002700011240BB60F928F939F93EF93FF938CB142
:10028000E091DF01E63040F491E09E0F9093DF01B2
:10029000F0E0EC59FD4F8083811105C081E080932F
:1002A000CA011092DF01FF91EF919F918F910F9002
:1002B0000BBE0F900FBE0F901F9018951092350235
:1002C000109255021092F201E3EFF1E011921192B7
:1002D00082E0E330F807D1F70895CF93DF931ABA9D
:1002E0008FEF8BBB88B38F709091E901892B88BB0E
:1002F000A0915502E3EFF1E040E050E0B09135020B
:1003000061E070E016C0EB01042E01C0CC0F0A942E
:10031000EAF72C2F2095A223A09355028115904E29
:1003200061F1B223B09335024F5F5F4F4830510502
:1003300061F199B320813181220F331F306E892FF3
:1003400090E0042E02C0959587950A94E2F781709B
:100350009927822B932B81939193811520EF9207FC
:1003600091F6CB01042E01C0880F0A94EAF7A82B5E
:10037000A0935502282F2095D4CFBC2BB0933502E3
:100380004F5F5F4F48305105A1F68091F201A827D9
:10039000A093F2018FEF8BBB8ABBDF91CF910895C1
:1003A000E0E4F2E080EC808389EF818384EA828359
:1003B00080EB838389E9848382E9858382E886836D
:1003C00088EF878380E8808790E9918798E8928713
:1003D00093E8938796EC948791EA958796E89687B9
:1003E0009EE897879CEF908B9BEF918B9DEF928B74
:1003F0009EEF938B9FEF948BE4EEF1E020E420835B
:1004000020E3218320E12283138220E2248320E75A
:1004100025838683ECE6F2E0108284E18183828387
:100420008383848387B3806F87BB9BBB9ABBA79A68
:10043000AF9A08958091D00181112BC086E0ECE540
:10044000F2E0A9EDB1E001900D928A95E1F72091DB
:10045000DD018DEC289F912D11249695969596950A
:100460003AE0939F2019112420936F0290936E021B
:100470009091DE01989F812D112486958695869511
:100480002AE0829F9019112490936D0280936C0250
:10049000089586E0EBEEF1E0A9EDB1E001900D9258
:1004A0008A95E1F781E180937002D1CF9091D801D4
:1004B0008DEC989F812D112486958695282F220FEB
:1004C000220F820F981B9093D80188B38F70909160
:1004D000EA01892B88BBE091D801F0E0E459FD4F97
:1004E000E081F0E0E05CFD4F80818BBB88B3E09160
:1004F000D801F0E0EC51FE4F8F709081892B88BBC2
:100500008091D8018F5F8093D801089581E0809316
:100510003802ECE5F2E0108212821182138214821A
:100520008CE0858380B7886080BF83B7886083BF95
:1005300083B78F7B83BF87B7826087BF83B78160B4
:1005400083BF82EA81BF089540915D0250915E02AF
:100550009A01369527953695279536952795A5ECDA
:10056000B0E20E944D12929582958F7089279F70FC
:10057000892768EE73E0869F9001879F300D969FD4
:10058000300D1124CA01821B930B30915F02F9E8F0
:100590003F9FE12D1124E295E695E7702CE3E29F61
:1005A00030191124E32F309160023F9F412D112417
:1005B000429546954770429F30191124432F209150
:1005C00061025BEA259F512D112452955F7038E13D
:1005D000539F20191124522F20915C0239E2239F4E
:1005E000312D11243695369569E1369F2019112455
:1005F0002F5F20935C02059690935E0280935D02CC
:100600009C013695279536952795369527950E9416
:100610004D12929582958F7089279F7089278E0F32
:1006200080935F028F9F912D1124929596959770DC
:10063000490F409360024F9F412D112442954695EA
:100640004770450F4093610292EA91BF9091D101AA
:10065000992349F080FD10C084E18093700281E00D
:1006600080933802089580FFF7CF80E18093700275
:1006700081E080933802089581E18093700281E0E7
:100680008093380208951F920F920FB60F92112493
:100690000BB60F922F933F934F935F936F937F937C
:1006A0008F939F93AF93BF93EF93FF930E94A40206
:1006B0000E946D01FF91EF91BF91AF919F918F913A
:1006C0007F916F915F914F913F912F910F900BBE52
:1006D0000F900FBE0F901F9018951092380208953A
:1006E000EBEEF1E01082128211821382148280E11B
:1006F00085830895E6E5F2E0128211821382148266
:100700001582089581E08093CD0186E0ECE5F2E06A
:10071000A6E5B2E001900D928A95E1F7E6E5F2E0F8
:100720003381365F89E8389F412D112442954695E3
:1007300047702481240F289F812D1124829586954E
:1007400087709581980F5CE3459F3019112433839E
:10075000859F2019112424838BEA989F812D1124D1
:1007600082958F7028E1829F9019112495830895B6
:10077000109234020895E0913402E03279F0EE23D1
:1007800071F0E03189F0F0E0EC5EFD4F80810E9475
:100790007A0B809134028F5F8093340208950E9417
:1007A0004A0BE0913402EFCF0E94340BE091340207
:1007B000EACF8091CF0181110CC080E1EFE7F1E039
:1007C000A4E1B2E001900D928A95E1F71092340213
:1007D000089580E1EEE6F1E0A4E1B2E001900D922F
:1007E0008A95E1F7109234020895CF92DF92EF924A
:1007F000FF920F931F93CF93DF93CDB7DEB72A9766
:100800000FB6F894DEBF0FBECDBF20913D023091F0
:100810003E023695279536952795ABE7B4E10E94C1
:100820004D124AE09E012F5F3F4F6901B901969535
:1008300087950E947E128E01075F1F4FE0913D0257
:10084000F0913E029F013695279536952795ABE7A7
:10085000B4E10E944D129695879544E6489F900119
:10086000499F300D11244AE0B801CF01821B930B40
:100870000E947E127E0136E0E30EF11C8091F101B0
:100880004AE0B70190E00E947E12FF92EF921F9320
:100890000F93DF92CF9280E991E09F938F9384E250
:1008A00092E09F938F930E94A3120FB6F894DEBF3D
:1008B0000FBECDBF803148F490E2E82FF0E0EC5E4F
:1008C000FD4F908B8F5F8031C1F7109234022A96D2
:1008D0000FB6F894DEBF0FBECDBFDF91CF911F9151
:1008E0000F91FF90EF90DF90CF9008950C94F50357
:1008F0008091CF01882369F080E1EEE6F1E0A4E188
:10090000B2E001900D928A95E1F7109234020C94B6
:10091000F50380E1EFE7F1E0A4E1B2E001900D9290
:100920008A95E1F7109234020C94F503EF92FF924E
:100930000F931F93CF93DF93CDB7DEB728970FB6F2
:10094000F894DEBF0FBECDBF8E010A5F1F4F8091AE
:100950003A024AE0B80190E00E947E124AE09E010D
:100960002F5F3F4F7901B90180913B0290913C028A
:100970000E947E12809139028F3F81F180E2FF92C6
:10098000EF921F930F931F928F9380EA91E09F93B2
:100990008F9384E292E09F938F930E94A3120FB6ED
:1009A000F894DEBF0FBECDBF803148F490E2E82F4F
:1009B000F0E0EC5EFD4F908B8F5F8031C1F71092BD
:1009C000340228960FB6F894DEBF0FBECDBFDF917C
:1009D000CF911F910F91FF90EF9008958DE2CFCFAF
:1009E00084E692E09F938F938EEA91E09F938F939A
:1009F00084E192E09F938F930E94A3120F900F9037
:100A00000F900F900F900F90803148F490E2E82FF4
:100A1000F0E0EC5EFD4F90838F5F8031C1F7109264
:100A20003402089580E1E9EBF1E0A4E1B2E0019045
:100A30000D928A95E1F780E1E9EBF1E0A4E2B2E002
:100A400001900D928A95E1F7109234020E94B90B41
:100A500080910001811102C00C947804813021F052
:100A60000E9496040C94F0040895809100018F5F19
:100A7000817080930001882321F00E9496040C94D9
:100A8000F0040C947804E1E6F0E0808188608083D3
:100A9000E2E6F0E08081877F808387B38F6087BB49
:100AA0008DB180658DB9709A0895C098C09A8FB93C
:100AB000779BFECF8FB1C09AC0980895982F990F59
:100AC000462F50E0092E02C0559547950A94E2F74B
:100AD000642F63707091D701E72FF0E0092E02C0F8
:100AE000F595E7950A94E2F7E3706E1709F446C0AE
:100AF0005091D601E13009F451C0E8F1E23009F437
:100B000048C0E33099F1A3E0B0E0611112C08FEF6B
:100B1000E52FF0E0092E02C0F595E7950A94E2F77B
:100B20002E2F2370E695E170E195EE0FEE0FE22B8C
:100B3000E81380E023E030E0092E01C0220F0A9480
:100B4000EAF720955223FD01092E01C0EE0F0A9409
:100B5000EAF75E2B5093D6012723462F01C0440F9E
:100B60009A95EAF7242B2093D7010895623059F61D
:100B7000A1E0B0E0DECF613031F6FACF43E050E0E3
:100B8000092E01C0440F0A94EAF7242F209580E033
:100B9000E3CF662339F0A3E0B0E0CBCF633009F0B8
:100BA000B2CFE6CFA1E0B0E081E0B2CF89E180939F
:100BB000F1018F9A8FB583708FBD8EB588608EBD21
:100BC0008FB581608FBD87B7846187BF8EB58F7702
:100BD0008EBD8EB583608EBD8091F1012FEF829F17
:100BE000C001112464E670E00E9411127BBD6ABD51
:100BF0000C94F5038091F1012FEF829FC001112425
:100C000064E670E00E9411127BBD6ABD0C94F5038E
:100C100082B1886182B9ABE8B0E08C9180658C9339
:100C2000EAE8F0E08081886180838C9183608C9316
:100C300080818F7780838081887F80831092D50127
:100C40001092D401089581E08093010184E390E043
:100C5000909303018093020108959C01892BF1F088
:100C60008091D4019091D5012817390791F089E03E
:100C70009DE3B901660F771F0E94FD116150710954
:100C8000709387006093860080918A0085608093CE
:100C90008A003093D5012093D401089580918A0071
:100CA000887F80938A003093D5012093D4010895E2
:100CB000E1E6F0E080818F778083E2E6F0E08081FA
:100CC0008F77808387B1876487B986B1886886B952
:100CD00086B1876086B9089582E380936B02BF9ADC
:100CE00085B5806285BD85B5886485BD85B5826022
:100CF00085BD089544B155B184E6849F9001859FD8
:100D0000300D1124932F96959695891B80936B0235
:100D1000089580916B022FEF829FC001112464E639
:100D200070E00E94111263BD0895369A08950E94E2
:100D3000090F6093390270933A0280933B029093BB
:100D40003C0280910001813009F008950C949604D2
:100D50008091CA01882321F080910001813009F03F
:100D600008951092CA010C94F0041A98129A1F98D0
:100D700017988AB7806C8ABF89B7806889BF10923C
:100D8000E3011092E20186E899E290933E0280939B
:100D90003D020895129A1A9A1F98179A1A9A8FE18B
:100DA00093E00197F1F700C000001A9890EA9A9535
:100DB000F1F7179808950E94CA060E94DA100E945F
:100DC000CA060E94DA1081E08093710208950E94A1
:100DD00041100E94CA061092710208950E944110AB
:100DE0000E94CA0610927102109201011092030132
:100DF0001092020108958091CD01882331F09091E5
:100E00005B02809161029817B9F08091CF0188232D
:100E100029F09091F00180916102981308959091CA
:100E2000EF01809160029813F9CF9091EE018091CB
:100E30005F02981769F0089590915A0280916002BC
:100E40009813E3CF9091590280915F029813DDCF00
:100E500081E08093CE010E9441100E94CA06109248
:100E60007102109201011092030110920201089583
:100E700020910201309103012433310570F08091FB
:100E8000CE0181114CC081E08093010184E390E0A8
:100E90009093030180930201089580913802882382
:100EA000E9F180915D0290915E0260910401709180
:100EB00005010E94FD11059788F5F901EE0FFF1F4E
:100EC000EA5FFE4F0190F081E02D3097A9F180910B
:100ED000D4019091D501E817F907B1F089E09DE3BD
:100EE000BF01660F771F0E94FD1161507109709359
:100EF00087006093860080918A00856080938A00D5
:100F00002091020130910301F093D501E093D401C7
:100F10002F5F3F4F309303012093020108950E94F9
:100F200041100E94CA0610927102109201011092A3
:100F3000030110920201089580918A00887F8093B6
:100F40008A002091020130910301DECF80910101DE
:100F5000811102C00C94380780918A00887F8093A9
:100F60008A001092D5011092D401089580917102E7
:100F7000882311F10E94EA0F109200018091CF01A5
:100F800081110DC080E1EFE7F1E0A4E1B2E0019052
:100F90000D928A95E1F7109234020C94F50380E1EA
:100FA000EEE6F1E0A4E1B2E001900D928A95E1F75E
:100FB000109234020C94F5030E94DB06DBCF809183
:100FC000F201982F90729093D001982F9071909386
:100FD000D10188708093CF0190913802992309F450
:100FE0005CC09091550293FF18C0109200018111CE
:100FF000C0C080E1EFE7F1E0A4E1B2E001900D9222
:101000008A95E1F7109234020E94F503809138022C
:10101000882309F442C09091550297FD9AC096FD2D
:101020007AC040915D0250915E029A0136952795F3
:1010300036952795A5ECB0E20E944D1292958295C7
:101040008F7089279F70892764EF71E0869F9001D8
:10105000879F300D969F300D112442175307D9F00A
:101060009A0136952795ABE7B4E10E944D1296950B
:10107000879562E3689F9001699F300D11244217A4
:10108000530731F58091CA0181113BC0809138022C
:1010900081111EC008950E94970640915D025091F3
:1010A0005E029A0136952795ABE7B4E10E944D1296
:1010B0009695879562E3689F9001699F300D112492
:1010C0004217530719F78091CA018823F9F219C012
:1010D0008091550281FD31C080FFDCCF809171028B
:1010E000811151C01092CD011092CE0181E0809308
:1010F000010184E390E090930301809302010C943A
:10110000B60780910001813009F0C0CF1092CA016A
:101110000E94F004BBCF0E9482031092CE0181E0B6
:101120008093010184E390E0909303018093020196
:1011300080913802811175CFB0CF0E943505809122
:101140003802882309F4A6CF8091550280FDC6CFCE
:10115000A1CF1092CD011092CE0181E080930101C8
:1011600024E330E0309303012093020196FF59CF2E
:10117000D2CF80E1EEE6F1E0A4E1B2E001900D9281
:101180008A95E1F73FCF0E9441100E94CA06109253
:1011900071020895CF93811102C0662379F1909175
:1011A000D001992369F19091F001911103C08F3F13
:1011B00009F46AC0890F9BEA899F912D11249295A9
:1011C0009F7028E1929F80191124982F8091EF0140
:1011D000811103C06F3F09F459C0680F29E8629F6D
:1011E000212D11242295269527704CE3249F601908
:1011F0001124262F2093EF019093F001CF910895B1
:101200009091D101992399F0909161029923B1F1C4
:10121000890F8093610280916002811103C06F3F4A
:1012200009F44EC0680F60936002CF910895C62FF5
:101230008823B1F020913D0230913E02A90164E182
:101240008602400D511D1124CA014A36524240F512
:101250008AE692E290933E0280933D020E94B60796
:10126000CC2361F26091F1016C0F91F481E08093E5
:10127000F10181E090E0CF910C94FA058F3F41F6A7
:1012800087E180936102C7CF97E1A0CF2BE3B2CF74
:10129000643688F083E68093F10183E690E0EBCF3B
:1012A00087324AE2940710F086E29AE290933E0277
:1012B00080933D02D3CF6093F101862F90E0DBCF86
:1012C0008BE3809360029ACF883059F021E030E0C0
:1012D000A90102C0440F551F8A95E2F7CA01815047
:1012E00008958FEF089591E0811101C090E09FB9BA
:1012F000779BFECF6FB9779BFECF809162008860AD
:101300008093620080916200877F809362000895DD
:101310002091E001820F911DFC01808191E09FB935
:10132000779BFECF8FB9779BFECF8091620088605C
:101330008093620080916200877F80936200809139
:10134000E0018F5F8093E0018031F9F0803209F095
:101350000895E5EDEA95F1F700001FB8779BFECF01
:1013600080E88FB9779BFECF809162008860809380
:10137000620080916200877F80936200F5EDFA95AC
:10138000F1F700001092E0010895F5EDFA95F1F7FC
:1013900000001FB8779BFECF80EC8FB9779BFECF04
:1013A0008091620088608093620080916200877FF4
:1013B0008093620085ED8A95F1F700008091E0014D
:1013C000C5CF660F660F660F605C1FB8779BFECFB8
:1013D0006FB9779BFECF2091620028602093620056
:1013E00020916200277F2093620025ED2A95F1F776
:1013F0000000FC019C01285F3F4F91E081919FB963
:10140000779BFECF8FB9779BFECF8091620088607B
:101410008093620080916200877F8093620085EDF7
:101420008A95F1F70000E217F30741F7089590E479
:10143000899F600D1124605C1FB8779BFECF6FB948
:10144000779BFECF809162008860809362008091DC
:101450006200877F809362000895811113C081E04C
:101460008FB9779BFECF80E38FB9779BFECF8091BA
:10147000620088608093620080916200877F809321
:10148000620008958436B0F48A3060F591E09FB927
:10149000779BFECF9DEC899F912D11249695969573
:1014A00096952AE0929F80191124805D8FB9779BD1
:1014B000FECFDDCF99E2899F912D112492959F70E7
:1014C000905D21E02FB9779BFECF9FB9779BFECF30
:1014D0009091620098609093620090916200977F73
:1014E0009093620099E2899F912D112492959F70AB
:1014F000382F24E6929F301911242DEC329F912D24
:101500001124969596959695905D21E02FB9779B3D
:10151000FECF9FB9779BFECF909162009860909329
:10152000620090916200977F90936200AFCF87FF37
:101530000C942D0A91E09FB9779BFECF9DE29FB955
:10154000779BFECF9091620098609093620090919B
:101550006200977F9093620095ED9A95F1F70000F5
:1015600081950C942D0A1FB8779BFECF8EE08FB922
:10157000779BFECF809162008860809362008091AB
:101580006200877F8093620008951FB8779BFECF2B
:101590008CE08FB9779BFECF80916200886080934A
:1015A000620080916200877F8093620008951FB877
:1015B000779BFECF8EE18FB9779BFECF8091620043
:1015C00088608093620080916200877F80936200D0
:1015D00008951FB8779BFECF88E18FB9779BFECF28
:1015E0008091620088608093620080916200877FB2
:1015F000809362000895E2E6F0E080818860808355
:101600008081877F808308951FB8779BFECF81E01C
:101610008FB9779BFECF80916200886080936200D3
:1016200080916200877F809362008FE19CE1019747
:10163000F1F700C0000008951FB8779BFECF82E04D
:101640008FB9779BFECF80916200886080936200A3
:1016500080916200877F809362008FE697E1019717
:10166000F1F700C0000008951FB8779BFECF80EC13
:101670008FB9779BFECF8091620088608093620073
:1016800080916200877F8093620085ED8A95F1F7F3
:10169000000008951FB8779BFECF80E88FB9779B35
:1016A000FECF80916200886080936200809162002A
:1016B000877F8093620085ED8A95F1F70000089599
:1016C00090E131E020E23FB9779BFECF2FB9779BC5
:1016D000FECF8091620088608093620080916200FA
:1016E000877F8093620085ED8A95F1F70000915025
:1016F00051F7089591E09FB9779BFECF8FB9779B03
:10170000FECF8091620088608093620080916200C9
:10171000877F809362000895FC0140E050E060E024
:1017200071E0DF01A40FB51F8C917FB9779BFECFCD
:101730008FB9779BFECF9091620098609093620082
:1017400090916200977F9093620085ED8A95F1F702
:1017500000006F5F462F50E0DF010D900020E9F799
:101760009D012E1B3F0B2250310924173507C8F667
:1017700008958FEF99EF0197F1F700C0000088E01E
:10178000809361001FB8779BFECF80E38FB9779B72
:10179000FECF809162008860809362008091620039
:1017A000877F809362008FE59DE60197F1F700C087
:1017B00000001FB8779BFECF80E38FB9779BFECFE9
:1017C0008091620088608093620080916200877FD0
:1017D000809362008FE59DE60197F1F700C000005D
:1017E0001FB8779BFECF80E38FB9779BFECF8091A8
:1017F000620088608093620080916200877F80939E
:1018000062008FE59DE60197F1F700C000001FB868
:10181000779BFECF88E38FB9779BFECF80916200E4
:1018200088608093620080916200877F809362006D
:101830008FE19EE40197F1F700C000001FB8779B8D
:10184000FECF88E08FB9779BFECF809162008860E1
:101850008093620080916200877F809362008FE1B5
:101860009EE40197F1F700C000001FB8779BFECF00
:1018700081E08FB9779BFECF809162008860809372
:10188000620080916200877F809362008FE19EE416
:101890000197F1F700C000001FB8779BFECF86E0EC
:1018A0008FB9779BFECF8091620088608093620041
:1018B00080916200877F809362008FE19EE40197B0
:1018C000F1F700C000001FB8779BFECF8CE08FB906
:1018D000779BFECF80916200886080936200809148
:1018E0006200877F809362008FE19EE40197F1F7A9
:1018F00000C0000008954F925F926F927F928F9286
:101900009F92AF92BF92CF92DF92EF92FF920F938E
:101910001F93CF93DF93CDB7DEB769970FB6F894D7
:10192000DEBF0FBECDBF142F422E5E2C002379F0F8
:101930006B017C01CC24F7FCC394DD24EE24FF244E
:101940000C2D6B017C0197FDA3C0C701B60144209B
:1019500009F496C09E012F5F3F4F5901490166244B
:101960006A94640C712C3FEF631A730A6A0C7B1C37
:101970002AE030E040E050E00E942512E62F2A8B5A
:101980003B8B4C8B5D8B6A897B898C899D8920E39D
:101990002E0FF40121934F016E167F0649F799240B
:1019A0009394940CF501E40DF11D2EE220832AE0BE
:1019B00030E040E050E00E942512E62F2A8B3B8B5E
:1019C0004C8B5D8B6E8B7F8B888F998F6A897B891F
:1019D0008C899D8931E0390DD501A90DB11DE05DDE
:1019E000EC93932E611571058105910501F7112383
:1019F00061F051104BC090E2311738F4F501E30F5C
:101A0000F11D90833F5F1313F9CF002331F0F501EF
:101A1000E30FF11D9DE290833F5F21E03150F5011E
:101A2000E30FF11D90812FB9779BFECF9FB9779B74
:101A3000FECF909162009860909362009091620056
:101A4000977F9093620085ED8A95F1F70000311140
:101A5000E5CF69960FB6F894DEBF0FBECDBFDF911C
:101A6000CF911F910F91FF90EF90DF90CF90BF909B
:101A7000AF909F908F907F906F905F904F90089560
:101A8000912C9E012F5F3F4F590191CF90E3B4CF2E
:101A9000F094E094D094C094C11CD11CE11CF11CC2
:101AA00054CF5F926F927F928F929F92AF92BF922C
:101AB000CF92DF92EF92FF920F931F93CF93DF931A
:101AC000CDB7DEB761970FB6F894DEBF0FBECDBFBE
:101AD0005C01162F742E6B2C661C6624661C562C1B
:101AE0009C0197FD9BC0772009F48DC0CE01019623
:101AF0007C016C0188248A94870C912C9FEF891AB1
:101B0000990A8E0C9F1C6AE070E0C9010E941112B4
:101B1000462F242F372F805DF60181936F01E81542
:101B2000F90589F7DD24D394D70CF701E70DF11DF2
:101B30008EE2808301C0D92E6AE070E0C9010E9464
:101B40001112462F242F372F91E09D0DF701ED0D37
:101B5000F11D805D80832115310569F7011158C0A1
:101B6000B7FC61C01123A9F0712C80E2292F30E06D
:101B7000412F50E0461957092417350754F49F5F49
:101B8000F701E20FF31F8083292F30E02417350778
:101B9000B4F3552031F0F701E90FF11D8DE2808398
:101BA0009F5F21E09150F701E90FF11D80812FB96E
:101BB000779BFECF8FB9779BFECF809162008860C4
:101BC0008093620080916200877F80936200E5EDE0
:101BD000EA95F1F700009111E5CF61960FB6F89400
:101BE000DEBF0FBECDBFDF91CF911F910F91FF9050
:101BF000EF90DF90CF90BF90AF909F908F907F90AD
:101C00006F905F900895D12CCE0101967C0194CF06
:101C1000112309F4BECF712C80E3A8CF22273327EC
:101C2000281B390B60CFD394D394F701E90FF11D32
:101C30008DE28083112359F02D2D30E0412F50E0AB
:101C40002417350724F49D2D512C80E298CF9D2D2B
:101C5000A8CF1F920F920FB60F9211240BB60F92BE
:101C60002F933F938F939F93AF93BF93EF93FF93E4
:101C7000E09171008E2F90E0FC013897E135F1057D
:101C8000B0F0809171008093A20284E08093740090
:101C9000FF91EF91BF91AF919F918F913F912F91C4
:101CA0000F900BBE0F900FBE0F901F901895EA5B20
:101CB000FF4F0C9444128091E101E091A302F09156
:101CC000A402E80FF11D80917300808384E9809362
:101CD0007400DECF8091A502809373001092E10121
:101CE00085E880937400D4CF8091E1019091A602A1
:101CF000891760F7E091A302F091A40291E0980F98
:101D00009093E101E80FF11D80818093730085E8D5
:101D100080937400BDCF85EA80937400B9CF209181
:101D2000E1018091A60230E090E001972817390781
:101D3000DCF485EC80937400ABCFE091A302F091CA
:101D4000A4028091E10121E0280F2093E101E80F36
:101D5000F11D8091730080838091A60230E090E0B5
:101D60000197281739072CF385E88093740090CFEA
:101D700080917400817008959091740090FDFCCF63
:101D80008E7F8093A5027093A4026093A302409378
:101D9000A60285EA8093740008959091740090FDE6
:101DA000FCCF81608093A5027093A4026093A3028C
:101DB0004093A60285EA8093740008958FEF809384
:101DC0007300109271008CE0809370000895A1E67A
:101DD000B0E08C9182608C93E2E6F0E080818260DA
:101DE00080838C918E7F8C9380818E7F808387EC23
:101DF00090E00197F1F700C000000E94DE0E41E084
:101E000060E070E080E90C94BC0E8091620080E09C
:101E10000895CF93DF9342E06AEA72E080E90E947E
:101E2000CD0EE091AA02F091AB02FE27EF27FE272C
:101E3000EF01CC0FCD2FCC1FDD0BD195CF019695A7
:101E40008795969587958F71992720E137E2829F34
:101E5000A001839F500D929F500D11249A01A3E47D
:101E6000B8E00E944D12481B590B56954795480FF4
:101E7000591F529542954F7045275F704527EE27B1
:101E8000F07FEF2B31F461E07C2FCA01DF91CF911D
:101E900008956FEF7C2FCA01DF91CF9108955D9B6C
:101EA000FECF8CB95D9BFECF089590919B0095FF6E
:101EB000FCCF80939C0080919B0085FFFCCF089510
:101EC000FC019081992349F031965D9BFECF9CB92E
:101ED0005D9BFECF91919111F8CF0895FC01208177
:101EE000222371F0319690919B0095FFFCCF2093B7
:101EF0009C0090919B0095FFFCCF21912111F3CF85
:101F000008959C01FC014491442369F00196F90174
:101F100024915D9BFECF2CB95D9BFECF9C01FC0103
:101F200044914111F3CF08958AB188698AB9E5E9EE
:101F3000F0E08081866080831092900087E689B906
:101F40000895EAE9F0E0808188618083EDE9F0E0BE
:101F50008081866080831092980087E68093990044
:101F6000089580E89EE302C0019721F05F9BFCCFBB
:101F70008CB1089580E0089580E89EE302C0019747
:101F800039F020919B0027FFFACF80919C000895A3
:101F900080E0089584E180934D0341E06DE473E0B7
:101FA00082E20E94BC0E0E94B80E8111FCCF8FEA23
:101FB00094E00197F1F700C0000041E06EE673E0A5
:101FC00082E20E94CD0E0E94B80E8111FCCF80915A
:101FD0006E03089580E280934D0310924E0380912A
:101FE0003D0290913E0290934F03809350031092D4
:101FF000510310923F0245E06DE473E082E20E94DB
:10200000BC0E80913F028823E1F3089580E4809321
:102010004D0310924E0380913602909137029093B7
:102020004F03809350031092510310925203109269
:102030003F0246E06DE473E082E20E94BC0E8091B4
:102040003F028823E1F30895EDE4F3E080E4808328
:102050001182809162029091630292838383148241
:1020600081E0858346E0BF0182E20E94BC0E2FEF33
:1020700087EE93E0215080409040E1F700C00000DF
:10208000089581E180934D0387ED94E00197F1F786
:1020900000C00000089583E280934D0381E08093A7
:1020A0004E0342E06DE473E082E20E94BC0E0E94A7
:1020B000B80E8111FCCF8FEA94E00197F1F700C0D0
:1020C000000048E066E573E082E20E94CD0E0E94C7
:1020D000B80E8111FCCF089582E280934D0381E018
:1020E00080934E0342E06DE473E082E20E94BC0EF6
:1020F0000E94B80E8111FCCF8FEA94E00197F1F7AE
:1021000000C0000048E066E573E082E20E94CD0E68
:102110000E94B80E8111FCCF089582E480934D0394
:1021200081E080934E0342E06DE473E082E20E941E
:10213000BC0E0E94B80E8111FCCF8FEA94E001978B
:10214000F1F700C0000048E066E573E082E20C941D
:10215000CD0E83E480934D0381E080934E0342E0F3
:102160006DE473E082E20E94BC0E0E94B80E811101
:10217000FCCF8FEA94E00197F1F700C0000048E03F
:1021800066E573E082E20C94CD0EEDE4F3E022E12B
:1021900020831182928383837483658346E0BF0129
:1021A00082E20E94BC0E8FE39CE90197F1F700C028
:1021B00000000895EDE4F3E081E0808380E5818311
:1021C00085E0828343E0BF0182E20E94BC0E2FEFD4
:1021D0008BED95E0215080409040E1F700C0000079
:1021E00061E070E081E090E00C94C510EDE4F3E074
:1021F00081E0808381E5818385E0828343E0BF01C4
:1022000082E20E94BC0E2FEF8BED95E021508040C2
:102210009040E1F700C0000061E070E081E090E0F4
:102220000C94C510EDE4F3E081E0808381E58183C7
:1022300085E0828343E0BF0182E20E94BC0E2FEF63
:102240008BED95E0215080409040E1F700C0000008
:1022500060E070E082E093E30E94C51061E071E00D
:1022600082E091E30E94C51061E070E081E090E0BF
:102270000C94C51078941092350210925502109269
:10228000F201E3EFF1E01192119282E0E330F807FE
:10229000D1F70E9486021092EB011092ED0110928C
:1022A000EC011092EE011092EF0180E18093F001B9
:1022B00010925802109257021092590210925A022C
:1022C00010925B0280916100886080936100809130
:1022D0006200877F8093620087B38F6087BB8DB178
:1022E00080658DB9709A0E9412050E94D605809172
:1022F00061008F7780936100809162008F77809377
:10230000620087B1876487B986B1886886B986B16B
:10231000876086B982E380936B02BF9A85B580623D
:1023200085BD85B5886485BD85B5826085BD0E9403
:10233000D0010E9408060E94E70E0E94940F0E949E
:10234000DE0E0E94B506C4E6D0E001E010E087ECA6
:1023500090E00197F1F700C000008091F10190E05A
:10236000880F991F880F991F880F991FBE010E941F
:102370001112683009F43FC0C80101C0880F6A9586
:10238000EAF78150C098C09A8FB9779BFECF6FB1A2
:10239000C09AC09860936A0280E00E945E058093B4
:1023A000CC0160916A0281E00E945E058093CB01BE
:1023B000682F8091CC010E94CA080E94BB03369A04
:1023C0000E94FB060E94DF0780910101882381F0B3
:1023D00080918A00887F80938A001092D5011092A4
:1023E000D4010E941A020E94560210923802AFCF06
:1023F0000E943807F6CF8FEFC5CFAA1BBB1B51E158
:1024000007C0AA1FBB1FA617B70710F0A61BB70B64
:10241000881F991F5A95A9F780959095BC01CD0109
:10242000089597FB072E16F4009407D077FD09D086
:102430000E94FD1107FC05D03EF4909581959F4FB9
:102440000895709561957F4F0895052E97FB1EF4B2
:1024500000940E943C1257FD07D00E945C1207FCBA
:1024600003D04EF40C943C12509540953095219534
:102470003F4F4F4F5F4F08959095809570956195B0
:102480007F4F8F4F9F4F0895EE0FFF1F0024001CBA
:102490000BBE0790F691E02D0994A29FB001B39F67
:1024A000C001A39F700D811D1124911DB29F700D5D
:1024B000811D1124911D0895A1E21A2EAA1BBB1B98
:1024C000FD010DC0AA1FBB1FEE1FFF1FA217B30700
:1024D000E407F50720F0A21BB30BE40BF50B661F16
:1024E000771F881F991F1A9469F7609570958095DA
:1024F00090959B01AC01BD01CF010895BB274A30E7
:1025000031F4992322F4BDE2909581959F4F0C946C
:102510008A12BB27FB015527AA27880F991FAA1FDC
:10252000A41710F0A41B83955051B9F7A05DAA33EE
:1025300008F0A95DA193009779F7B111B1931192B9
:10254000CB010C94F2140F931F93CF93DF93CDB76D
:10255000DEB72E970FB6F894DEBF0FBECDBF0D8944
:102560001E8986E08C831A8309838FEF9FE79E8301
:102570008D83AE01475E5F4F6F89788DCE010196E6
:102580000E94D212EF81F885E00FF11F10822E9683
:102590000FB6F894DEBF0FBECDBFDF91CF911F9174
:1025A0000F9108952F923F924F925F926F927F9278
:1025B0008F929F92AF92BF92CF92DF92EF92FF9253
:1025C0000F931F93CF93DF93CDB7DEB72B970FB643
:1025D000F894DEBF0FBECDBF6C017B018A01FC0108
:1025E00017821682838181FFCCC1CE0101963C0106
:1025F000F6019381F70193FD859193FF81917F010E
:10260000882309F4BAC1853239F493FD859193FF8B
:1026100081917F01853229F4B60190E00E94021574
:10262000E7CF912C212C312CFFE1F315D8F08B3220
:1026300079F038F4803279F08332A1F4232D2061CF
:102640001DC08D3261F0803369F4232D216016C0E6
:10265000832D8260382EE32DE4603E2E2AC0F32DB8
:10266000F8601DC037FC2DC020ED280F2A3040F047
:102670008E32B9F436FC81C1232D2064322E19C06C
:1026800036FE06C08AE0989E200D1124922E11C0BD
:10269000EAE02E9E200D1124222EF32DF0623F2E13
:1026A00008C08C3621F4832D8068382E02C088360D
:1026B00041F4F70193FD859193FF81917F01811191
:1026C000B3CF982F9F7D9554933028F40C5F1F4F04
:1026D0009FE399830DC0833631F0833771F08335E2
:1026E00009F059C021C0F801808189830E5F1F4F16
:1026F00088248394912C530113C02801F2E04F0EDB
:10270000511CF801A080B18036FE03C0692D70E035
:1027100002C06FEF7FEFC5010E94E7144C018201F8
:10272000F32DFF773F2E16C0280122E0420E511CE8
:10273000F801A080B18036FE03C0692D70E002C0B0
:102740006FEF7FEFC5010E94DC144C01F32DF068A0
:102750003F2E820133FC1BC0822D90E08816990623
:10276000B0F4B60180E290E00E9402152A94F4CF02
:10277000F50137FC859137FE81915F01B60190E04C
:102780000E94021521102A9421E0821A91088114D6
:10279000910471F7E8C0843611F0893641F5F801EB
:1027A00037FE07C060817181828193810C5F1F4F6A
:1027B00008C060817181072E000C880B990B0E5F99
:1027C0001F4FF32DFF763F2E97FF09C09095809500
:1027D000709561957F4F8F4F9F4FF0683F2E2AE095
:1027E00030E0A3010E943E15882E861845C085372B
:1027F00031F4232D2F7EB22E2AE030E025C0932D18
:10280000997FB92E8F36C1F018F4883579F0B5C0AC
:10281000803719F0883721F0B0C0E92FE061BE2E73
:10282000B4FE0DC0FB2DF460BF2E09C034FE0AC0FB
:10283000292F2660B22E06C028E030E005C020E136
:1028400030E002C020E132E0F801B7FE07C060814D
:102850007181828193810C5F1F4F06C060817181FD
:1028600080E090E00E5F1F4FA3010E943E15882E6E
:102870008618FB2DFF773F2E36FE0DC0232D2E7FB1
:10288000A22E891458F434FE0BC032FC09C0832DEB
:102890008E7EA82E05C0B82CA32C03C0B82C01C076
:1028A000B92CA4FE0FC0FE01E80DF11D808180331C
:1028B00021F49A2D997EA92E09C0A2FE06C0B394D8
:1028C000B39404C08A2D867809F0B394A3FC11C098
:1028D000A0FE06C0B21488F4280C922C9B180EC0DF
:1028E000B21460F4B60180E290E00E940215B39445
:1028F000F7CFB21418F42B1802C0982C212CA4FE88
:1029000010C0B60180E390E00E940215A2FE17C03D
:10291000A1FC03C088E790E002C088E590E0B60122
:102920000CC08A2D867859F0A1FE02C08BE201C04E
:1029300080E2A7FC8DE2B60190E00E9402158914A6
:1029400038F4B60180E390E00E9402159A94F7CF24
:102950008A94F301E80DF11D8081B60190E00E9498
:1029600002158110F5CF222009F442CEB60180E293
:1029700090E00E9402152A94F6CFF6018681978195
:1029800002C08FEF9FEF2B960FB6F894DEBF0FBEFD
:10299000CDBFDF91CF911F910F91FF90EF90DF900E
:1029A000CF90BF90AF909F908F907F906F905F90EF
:1029B0004F903F902F900895FC010590615070401A
:1029C0000110D8F7809590958E0F9F1F0895FC01F8
:1029D0006150704001900110D8F7809590958E0F4E
:1029E0009F1F0895DC01FC01672F71917723E1F7A8
:1029F000329704C07C916D9370836291AE17BF07CC
:102A0000C8F308950F931F93CF93DF93FB012381A6
:102A100021FD03C08FEF9FEF2CC022FF16C046811F
:102A20005781248135814217530744F4A081B18135
:102A30009D012F5F3F4F318320838C932681378107
:102A40002F5F3F4F3783268314C08B01EC01FB01BE
:102A50000084F185E02D0995892BE1F6D8011696C1
:102A60008D919C911797019617969C938E9316972C
:102A7000CE01DF91CF911F910F910895FA01AA27FE
:102A8000283051F1203181F1E8946F936E7F6E5FB1
:102A90007F4F8F4F9F4FAF4FB1E03ED0B4E03CD05F
:102AA000670F781F891F9A1FA11D680F791F8A1F42
:102AB000911DA11D6A0F711D811D911DA11D20D0A9
:102AC00009F468943F912AE0269F11243019305D63
:102AD0003193DEF6CF010895462F4770405D419354
:102AE000B3E00FD0C9F7F6CF462F4F70405D4A33A1
:102AF00018F0495D31FD4052419302D0A9F7EACF69
:102B0000B4E0A6959795879577956795BA95C9F797
:102B100000976105710508959B01AC010A2E06948A
:102B20005795479537952795BA95C9F7620F731F43
:0C2B3000841F951FA01D0895F894FFCF8E
:102B3C00010134007800A500A500A5000000C40028
:102B4C00C400C400000000000000000000000000F1
:102B5C00000000000000F700F700F7000000DC00A8
:102B6C00F700DC00C4002C002C002C000000DC0062
:102B7C00DC00DC000000A500A500A5000000C400DE
:102B8C00C400C400C40000000000000000000000ED
:102B9C00000000000000F700F70000000000414CAE
:102BAC0041524D3A2041524D4544202020200041B5
:102BBC004C41524D3A204E4F542041524D45440009
:102BCC00464D3A25732E257320564F4C3A257300EB
:102BDC0049543A20256325732E25732763004F54DF
:102BEC003A20252E3573276300202020202020201A
:0A2BFC0020202020202020202000AF
:00000001FF
